:100000000C9442000C9454000C9454000C94A301E2
:100010000C948B010C9454000C9454000C945400D8
:100020000C9454000C9454000C9454000C94540000
:100030000C9454000C9454000C9454000C945400F0
:100040000C9454000C9454000C9454000C945400E0
:100050000C9454002504450429042E04320437046A
:100060003C0440048204B4048804900496049E0472
:10007000A604AC04F0041205F404F904FE0403051C
:1000800008050D0511241FBECFE5D8E0DEBFCDBFAA
:1000900020E0A0E6B0E001C01D92A037B207E1F772
:1000A0000E94E7010C948A080C9400000E948703C8
:1000B0000E94670680E0089511E0C2E0D4E00E944B
:1000C0008E066AE070E080E00E94A70580E690E07E
:1000D0000E94A5062091600030E0263131053CF4F5
:1000E000D093610069E18C2F0E948F0310C02132F0
:1000F00031053CF4C093610069E183E00E948F0305
:1001000006C01093610069E1812F0E948F036EE1A8
:1001100070E080E00E94A705D2CFFC01892BC9F1D5
:100120008081813091F028F08230D9F0833029F13C
:1001300032C081812AB3982F9095292392819823E8
:10014000822F892B8ABB80E00895818127B3982F65
:100150009095292392819823822F892B87BB80E059
:100160000895818124B3982F909529239281982313
:10017000822F892B84BB80E00895818121B3982F41
:100180009095292392819823822F892B81BB80E02F
:10019000089581E0089581E00895813079F028F094
:1001A0008230A9F08330E1F024C08BB3962F909574
:1001B00089234623482B4BBB80E0089588B3962FB4
:1001C000909589234623482B48BB80E0089585B34A
:1001D000962F909589234623482B45BB80E00895B0
:1001E00082B3962F909589234623482B42BB80E00B
:1001F000089581E00895EF92FF921F93CF93DF93CC
:10020000CDB7DEB729970FB6F894DEBF0FBECDBFCE
:100210007C0183E08093620011E01F8384E0888783
:100220001986CE0107960E948D00F701818189838E
:100230001A8282E08C831B8380916200823031F0CD
:10024000833039F484B7806484BF03C084B78F7B64
:1002500084BF8BB780628BBF8FB780688FBFCE01A2
:1002600001960E94F4036FEF70E089810E941E05E1
:1002700080E029960FB6F894DEBF0FBECDBFDF91A8
:10028000CF911F91FF90EF9008950F931F93CF93FD
:10029000DF9300D0CDB7DEB78A011A821982BE0182
:1002A0006F5F7F4F82E00E9485058091640090918E
:1002B0006500982F882729813A81820F931F9A839E
:1002C000898396958795A0E0B0E0F80180839183BB
:1002D000A283B38382E00E945405F801608171819A
:1002E000828193810E94670720E030E048E652E473
:1002F0000E94C6060E9438076093630080E00F905A
:100300000F90DF91CF911F910F910895209163007D
:10031000FC01208308951F920F920FB60F921124B3
:100320008F939F9314BC8091640090916500019617
:1003300090936500809364009F918F910F900FBE02
:100340000F901F9018951F920F920FB60F921124C5
:100350002F933F934F935F936F937F938F939F93CD
:10036000AF93BF93EF93FF9380916200833081F44A
:1003700094B780E4892784BF82E080936200109262
:100380006500109264006FEF70E00E941E050EC0C1
:1003900080916200823051F494B780E4892784BF51
:1003A00083E08093620082E00E945405FF91EF9108
:1003B000BF91AF919F918F917F916F915F914F917D
:1003C0003F912F910F900FBE0F901F9018950E9494
:1003D00056000E945C00FDCF0F931F93CF93DF93D5
:1003E000CDB7DEB729970FB6F894DEBF0FBECDBFED
:1003F000813019F08230E9F038C003E0098380E1F0
:100400008A831FEF1B83CE0101960E948D000C830F
:1004100084E08D831E83CE0104960E948D000F839D
:1004200088E088871987CE0107960E948D0080E0BA
:100430001DC003E0098380E28A831FEF1B83CE0186
:1004400001960E948D000C8380E48D831E83CE0173
:1004500004960E948D000F8380E888871987CE015B
:1004600007960E948D0080E001C081E029960FB6BA
:10047000F894DEBF0FBECDBFDF91CF911F910F91DA
:100480000895813019F0823059F154C0613021F063
:10049000D8F0623069F050C04FEF64E083E00E9412
:1004A000CD0040E068E083E00E94CD0080E0089548
:1004B00040E064E083E00E94CD004FEF68E083E01D
:1004C0000E94CD0080E0089540E064E083E00E9457
:1004D000CD0040E068E083E00E94CD0080E0089518
:1004E000613021F0D8F0623069F028C04FEF60E44D
:1004F00083E00E94CD0040E060E883E00E94CD00F0
:1005000080E0089540E060E483E00E94CD004FEF7A
:1005100060E883E00E94CD0080E0089540E060E460
:1005200083E00E94CD0040E060E883E00E94CD00BF
:1005300080E0089581E0089580E0089580E00895C6
:100540001F93CF93DF9300D0CDB7DEB7162F813046
:1005500019F0823089F020C081E08983CE010196B4
:100560000E94D30228EC30E040E050E0612F898106
:100570000E94190380E011C082E08983CE010196B8
:100580000E94D30228EC30E040E050E0612F8981E6
:100590000E94190381E001C081E00F900F90DF916C
:1005A000CF911F910895CF93DF9300D000D000D05A
:1005B000CDB7DEB7009789F1FC011FBC1EBC2EB57C
:1005C0003FB5306A3FBD2EBD2EB53FB520613FBD62
:1005D0002EBD2EB53FB53FBD2EBD1DBC1CBC8081C0
:1005E000813019F0823069F01AC08FEF8B8383E07D
:1005F000898380E28A83CE0101960E948D0080E08B
:100600000FC08FEF8E8383E08C8380E18D83CE01DA
:1006100004960E948D0080E003C081E001C081E06B
:1006200026960FB6F894DEBF0FBECDBFDF91CF91F7
:100630000895CF92DF92EF92FF920F931F93CF9383
:10064000DF93D82FC62F60E874E88EE190E00E9417
:100650006208DA01C901B695A7959795879597BD68
:1006600086BDD13019F0D23011F142C006B517B5B0
:100670006C2F70E080E090E00E94690720E030E09D
:1006800048EC52E40E94C6066B017C01B80180E090
:1006900090E00E9467079B01AC01C701B6010E9470
:1006A000F5070E9438077BBD6ABD80E022C006B511
:1006B00017B56C2F70E080E090E00E94690720E0A1
:1006C00030E048EC52E40E94C6066B017C01B801A0
:1006D00080E090E00E9467079B01AC01C701B60172
:1006E0000E94F5070E94380779BD68BD80E001C00F
:1006F00081E02EB53FB522603FBD2EBDDF91CF9189
:100700001F910F91FF90EF90DF90CF90089581E0BF
:100710000E94EC0182E00E94EC0180E00895CF93FA
:10072000C62F8230F1F030F4882309F450C08130B4
:1007300031F057C0833039F18430B9F152C061E0F3
:1007400081E00E9441026C2F81E00E94A00261E0E2
:1007500082E00E9441026C2F82E00E94A00280E0B1
:1007600041C062E081E00E9441026C2F81E00E9462
:10077000A00262E082E00E9441026C2F82E00E94AF
:10078000A00280E02FC062E081E00E9441026C2F55
:1007900081E00E94A00261E082E00E9441026C2F91
:1007A00082E00E94A00280E01DC061E081E00E9422
:1007B00041026C2F81E00E94A00262E082E00E9470
:1007C00041026C2F82E00E94A00280E00BC060E03A
:1007D00081E00E94410260E082E00E94410280E0EC
:1007E00001C081E0CF910895FC01892B09F422C159
:1007F0008081813009F45BC020F0823009F4D0C0E0
:100800001BC188E083BF1CBE89B78C7F89BF8281F2
:10081000882319F0813021F006C089B789BF03C051
:1008200089B7826089BF8181813099F118F0823067
:10083000A9F139C0E3818E2F90E08830910528F529
:10084000FC01E65DFF4F0C9484081092690080E083
:10085000089582E08093690080E008951092690015
:1008600081E0089583E08093690080E0089584E04A
:100870008093690080E008951092690081E00895F6
:1008800085E08093690080E008951092690081E01E
:10089000089587E08093690080E0089586E0809362
:1008A000690080E008951092690081E0089588E071
:1008B00090E09FBD8EBD1DBC1CBC1BBC1ABC89B783
:1008C000837C89BF8281882319F0813021F006C0A2
:1008D00089B789BF03C089B7806189BF81818130B1
:1008E00009F448C020F0823009F44CC053C0E381C1
:1008F0008E2F90E088309105B8F5FC01EE5CFF4F3B
:100900000C948408109268001092670080E00895AB
:1009100082E090E0909368008093670080E0089503
:10092000109268001092670081E0089583E090E0E3
:10093000909368008093670080E0089584E090E0E1
:10094000909368008093670080E00895109268009B
:100950001092670081E0089585E090E09093680030
:100960008093670080E008951092680010926700FD
:1009700081E0089587E090E090936800809367009D
:1009800080E0089586E090E090936800809367008F
:1009900080E00895109268001092670081E0089549
:1009A00088E085BD14BC89B7837C89BF8281882398
:1009B00019F0813021F006C089B789BF03C089B71B
:1009C000806889BF8181811131C0E3818E2F90E0E1
:1009D0008830910538F5FC01E65CFF4F0C948408E3
:1009E0001092660080E0089582E08093660080E0C7
:1009F000089583E08093660080E0089584E080930A
:100A0000660080E0089585E08093660080E00895A8
:100A100086E08093660080E0089587E0809366001A
:100A200080E008951092660081E0089510926600BB
:100A300081E0089581E0089581E00895813089F092
:100A400018F08230F1F02AC06F3F710509F040F5CF
:100A500012BE6CBF93B780916900892B83BF80E081
:100A600008951DBC1CBC7BBD6ABD2EB53FB58091F1
:100A7000670090916800822B932B9FBD8EBD80E014
:100A800008956F3F710509F068F414BC63BD95B516
:100A900080916600892B85BD80E0089581E00895EE
:100AA00081E0089581E00895813039F018F08230B6
:100AB00041F00AC013BE80E008951FBC1EBC80E058
:100AC000089515BC80E0089581E0089561157105D1
:100AD000C1F0813051F018F0823069F014C088B74D
:100AE0008270FB01808380E0089588B78071FB01EC
:100AF000808380E0089588B78078FB01808380E060
:100B0000089581E0089581E0089561157105D9F097
:100B1000813059F018F0823079F017C082B790E038
:100B2000FB019183808380E008958CB59DB5FB0126
:100B30009183808380E0089584B590E0FB019183E8
:100B4000808380E0089581E0089581E008950F9307
:100B50001F93CF93DF93CDB7DEB727970FB6F894E7
:100B6000DEBF0FBECDBF8B0119821B821C8294E0B9
:100B70009D83813031F018F0823031F007C01A8245
:100B800005C081E08A8302C082E08A83CE0102969A
:100B90000E94F4036AEF70E08A810E941E0501152D
:100BA000110501F523C0BE016F5F7F4F8A810E944E
:100BB000660589818823B9F38A81813041F018F074
:100BC000823049F00BC088B7826088BF07C088B701
:100BD000806188BF03C088B7806888BF19820150D0
:100BE000110921F089818823F1F2E6CF8A810E94E0
:100BF000540580E027960FB6F894DEBF0FBECDBF38
:100C0000DF91CF911F910F9108950F931F93CF9371
:100C1000DF93CDB7DEB727970FB6F894DEBF0FBED0
:100C2000CDBF8B01169507951695079519821B82E6
:100C30001C8292E09D83813031F018F0823031F0D7
:100C400007C01A8205C081E08A8302C082E08A83DD
:100C5000CE0102960E94F40363E070E08A810E9454
:100C60001E050115110501F523C0BE016F5F7F4F01
:100C70008A810E94660589818823B9F38A8181303F
:100C800041F018F0823049F00BC088B7826088BF0D
:100C900007C088B7806188BF03C088B7806888BFF5
:100CA00019820150110921F089818823F1F2E6CFE0
:100CB0008A810E94540580E027960FB6F894DEBF23
:100CC0000FBECDBFDF91CF911F910F910895CF93AC
:100CD000DF9300D0CDB7DEB782E089838A83EDE66B
:100CE000F0E091E0908381838FEF8283EAE6F0E089
:100CF000908384E0818312828DE690E00E948D00D3
:100D00008AE690E00E948D00CE0101960E94FB00D1
:100D100080E00F900F90DF91CF910895CF93DF93F4
:100D2000CDE6D0E04FEF698188810E94CD0064E17B
:100D300070E080E00E94050640E0698188810E94A1
:100D4000CD0080E0DF91CF9108950F931F93CF9353
:100D5000DF9300D000D0CDB7DEB78C0119821A82A4
:100D60001B821C82AE014F5F5F4F62E082E00E94F7
:100D70004501C8010E94860180E00F900F900F90FE
:100D80000F90DF91CF911F910F9108950E94DA0685
:100D90000C94BB070E94B40758F00E94AD0740F0C6
:100DA00029F45F3F29F00C94A40751110C94EF072C
:100DB0000C94AA070E94CC0768F39923B1F355233A
:100DC00091F3951B550BBB27AA276217730784075E
:100DD00038F09F5F5F4F220F331F441FAA1FA9F3F4
:100DE00035D00E2E3AF0E0E832D091505040E695E2
:100DF000001CCAF72BD0FE2F29D0660F771F881F43
:100E0000BB1F261737074807AB07B0E809F0BB0B35
:100E1000802DBF01FF2793585F4F3AF09E3F510549
:100E200078F00C94A4070C94EF075F3FE4F3983E2E
:100E3000D4F3869577956795B795F7959F5FC9F732
:100E4000880F911D9695879597F90895E1E0660FB3
:100E5000771F881FBB1F621773078407BA0720F02C
:100E6000621B730B840BBA0BEE1F88F7E095089595
:100E70000E94D40788F09F5798F0B92F9927B7514F
:100E8000B0F0E1F0660F771F881F991F1AF0BA952E
:100E9000C9F714C0B13091F00E94EE07B1E0089597
:100EA0000C94EE07672F782F8827B85F39F0B93F89
:100EB000CCF3869577956795B395D9F73EF49095E1
:100EC0008095709561957F4F8F4F9F4F0895E8945F
:100ED00009C097FB3EF490958095709561957F4F82
:100EE0008F4F9F4F9923A9F0F92F96E9BB27939530
:100EF000F695879577956795B795F111F8CFFAF440
:100F0000BB0F11F460FF1BC06F5F7F4F8F4F9F4F70
:100F100016C0882311F096E911C0772321F09EE8CE
:100F2000872F762F05C0662371F096E8862F70E034
:100F300060E02AF09A95660F771F881FDAF7880F0E
:100F40009695879597F9089597F99F6780E870E0DF
:100F500060E008959FEF80EC089500240A9416162F
:100F6000170618060906089500240A941216130697
:100F7000140605060895092E0394000C11F4882325
:100F800052F0BB0F40F4BF2B11F460FF04C06F5F41
:100F90007F4F8F4F9F4F089557FD9058440F551F17
:100FA00059F05F3F71F04795880F97FB991F61F0EB
:100FB0009F3F79F087950895121613061406551F62
:100FC000F2CF4695F1DF08C0161617061806991FCE
:100FD000F1CF86957105610508940895E894BB27C3
:100FE00066277727CB0197F908950E9408080C948B
:100FF000BB070E94AD0738F00E94B40720F095238C
:1010000011F00C94A4070C94AA0711240C94EF0778
:101010000E94CC0770F3959FC1F3950F50E0551FC8
:10102000629FF001729FBB27F00DB11D639FAA273D
:10103000F00DB11DAA1F649F6627B00DA11D661F8C
:10104000829F2227B00DA11D621F739FB00DA11DAD
:10105000621F839FA00D611D221F749F3327A00D67
:10106000611D231F849F600D211D822F762F6A2F03
:1010700011249F5750409AF0F1F088234AF0EE0F68
:10108000FF1FBB1F661F771F881F91505040A9F795
:101090009E3F510580F00C94A4070C94EF075F3F2E
:1010A000E4F3983ED4F3869577956795B795F795D1
:1010B000E7959F5FC1F7FE2B880F911D9695879549
:1010C00097F90895A1E21A2EAA1BBB1BFD010DC0C2
:1010D000AA1FBB1FEE1FFF1FA217B307E407F507E8
:1010E00020F0A21BB30BE40BF50B661F771F881FC4
:1010F000991F1A9469F760957095809590959B015A
:10110000AC01BD01CF010895EE0FFF1F0590F491D2
:08111000E02D0994F894FFCFD3
:00000001FF
